:020000040800F2
:100000006806002089010008DD090008B30800081F
:1000100069090008690500085D1300080000000078
:10002000000000000000000000000000A90F000810
:10003000F5050008000000004D0F0008D910000869
:10004000A3010008A3010008A3010008A301000800
:10005000A3010008A3010008A3010008A3010008F0
:10006000A3010008A3010008A3010008A3010008E0
:10007000A3010008A3010008A3010008A3010008D0
:10008000A3010008A301000845020008A30100081D
:10009000A3010008A3010008A3010008A3010008B0
:1000A000A3010008A3010008A3010008A3010008A0
:1000B000A3010008A3010008A3010008A301000890
:1000C000A3010008A3010008A3010008A301000880
:1000D000A3010008A3010008A3010008A301000870
:1000E0003D060008A3010008A301000800F002F883
:1000F00000F03AF80AA090E8000C82448344AAF188
:100100000107DA4501D100F02FF8AFF2090EBAE885
:100110000F0013F0010F18BFFB1A43F0010318473B
:10012000201E0000401E0000103A24BF78C878C18D
:10013000FAD8520724BF30C830C144BF04680C60ED
:10014000704700000023002400250026103A28BF35
:1001500078C1FBD8520728BF30C148BF0B60704739
:100160001FB51FBD10B510BD00F031F81146FFF7E7
:10017000F7FF01F0F5F800F04FF803B4FFF7F2FFD6
:1001800003BC00F057F800000948804709480047C1
:10019000FEE7FEE7FEE7FEE7FEE7FEE7FEE7FEE737
:1001A000FEE7FEE704480549054A064B7047000094
:1001B000DD100008ED00000868000020680600203F
:1001C000680200206802002070477047704775463B
:1001D00000F02CF8AE4605006946534620F00700B3
:1001E000854618B020B5FFF7DDFFBDE820404FF091
:1001F00000064FF000074FF000084FF0000B21F011
:100200000701AC46ACE8C009ACE8C009ACE8C009DD
:10021000ACE8C0098D46704710B50446AFF30080C6
:100220002046BDE81040FFF7A8BF00000048704717
:100230000800002001491820ABBEFEE7260002009E
:100240007047000010B54FF4A071074800F043F864
:10025000012807D1054800F0ADFE4FF4A071024817
:1002600000F01BF810BD00000024014000003443E2
:100270000A4600214168024B194011434160704712
:10028000FFFD3FFF0A460021416821F01F01114395
:100290004160704741628262704700220A12D34374
:1002A0000360704721B1826842F00102826003E07E
:1002B000826822F0010282607047014600208A684D
:1002C00002F004020AB1012000E00020704701465C
:1002D000C86C80B2704770B502460020002300242D
:1002E0000B125568CEB205EA060415681D4015B11B
:1002F0000CB1012000E0002070BD014600208A689A
:1003000002F008020AB1012000E00020704710B599
:100310000023CBB21AB144681C43446002E0446835
:100320009C43446010BD000030B50246002000230D
:1003300050680F4C20400D790C6844EA0524204396
:10034000506090680B4C2040D1E902542C434D7909
:1003500044EA450420439060D06A20F470000C7C8D
:10036000641EE4B2234340EA0350D06230BD000073
:10037000FFFEF0FFFDF7F1FFF0B504460D4600204B
:100380000021092D11DDE068A5F10A0606EB4607FC
:10039000072606FA07F18843A5F10A0606EB46068A
:1003A00003FA06F10843E0600CE0206905EB45071D
:1003B000072606FA07F1884305EB450603FA06F11E
:1003C00008432061072A0FDA606B561E06EB86078A
:1003D0001F2606FA07F18843561E06EB860605FA25
:1003E00006F10843606322E00D2A0FDA206BD61F66
:1003F00006EB86071F2606FA07F18843D61F06EB91
:10040000860605FA06F10843206310E0E06AA2F1CF
:100410000D0606EB86071F2606FA07F18843A2F1B0
:100420000D0606EB860605FA06F10843E062F0BD0C
:10043000816841F008018160704721B1826842F40F
:10044000A002826003E0826822F4A002826070470A
:10045000816841F0040181607047000010B50248D6
:10046000FFF735FF10BD00000024014000B587B044
:100470000121480200F088FD0121042000F084FDE4
:100480004FF4004000F064FD00208DF81B000820B0
:10049000ADF8180003208DF81A0006A92F4800F0C7
:1004A0006BF90523012203212D48FFF765FF00208A
:1004B000019004904FF46020039001208DF8090012
:1004C00000208DF8080001208DF8140001A92448AF
:1004D000FFF72AFF01212248FFF7E4FE2048FFF73B
:1004E000A7FF00BF1E48FFF708FF0128FAD01C48ED
:1004F000FFF7AEFF00BF1A48FFF7DFFE0128FAD072
:1005000003211748FFF7BEFE40F2DC5240F6FF71B0
:100510001348FFF7BFFE13491148FFF7A9FE012258
:100520004FF4A0710E48FFF7F2FE4FF4A06000F008
:100530008FFA12208DF8000001208DF803000320AF
:100540008DF801008DF80200684600F049FA01219B
:100550000348FFF772FF07B000BD0000000801402C
:10056000002401400002800000BFFEE7014800882F
:1005700070470000000000201FB50121082000F096
:1005800003FD0121084600F0FFFC48208DF80F0014
:100590004FF48040ADF80C0003208DF80E0003A945
:1005A000134800F0E9F80E21012000F0C5F84FF4DF
:1005B0008040019001208DF80A0000208DF808008D
:1005C0000C208DF8090001A800F06CF84FF4A06031
:1005D00000F03EFA28208DF8000001208DF803007D
:1005E0008DF801008DF80200684600F0F9F91FBD92
:1005F000000C0140704700B5034603E04FF47A70E9
:1006000000F005F8181EA3F10103F7D100BD00EBBF
:10061000C001C9004FF0E022516100219161052124
:10062000116100BF4FF0E021096901F48031002918
:10063000F8D004214FF0E0221161704710B54FF45B
:10064000804000F01BF801280DD18103064800F01E
:100650001EF920B905480088401C044908804FF461
:10066000804000F005F810BD000C014000000020A3
:100670000149086070470000140401400146002051
:100680000022074B1B6803EA0102054B14331B6869
:100690000B4013B10AB1012000E0002070470000B8
:1006A00000040140002123498279002A3AD00A46F9
:1006B000126803689A430B461A600A1D12680368A1
:1006C0009A430B1D1A60027911440A6803681A43A1
:1006D0000A60184A0832126803689A43154B0833B7
:1006E0001A601A1D126803689A43124B0C331A6081
:1006F0004279102A0ED11A1F126803681A430D4B53
:1007000008331A601A1D126803681A43094B0C3328
:100710001A600DE00749427911440A6803681A43D8
:100720000A6005E0027911440A6803689A430A6086
:10073000704700000004014030B500228B071C0FF9
:100740000F2303FA04F20B4B8C1053F8243093431D
:10075000084C8D1044F8253023468C1053F8243073
:100760008C07240F00FA04F42343024C8D1044F844
:10077000253030BD080001402DE9F041024600253A
:100780000026002000230024002791F803C00CF06D
:100790000F0591F803C00CF0100CBCF1000F03D052
:1007A00091F802C04CEA050591F800C0BCF1000FB9
:1007B00031D0146800202BE04FF0010C0CFA00F34C
:1007C000B1F800C00CEA03069E4220D183004FF02E
:1007D0000F0C0CFA03F7BC4305FA03FC4CEA0404C3
:1007E00091F803C0BCF1280F06D14FF0010C0CFAB0
:1007F00000FCC2F814C00AE091F803C0BCF1480F35
:1008000005D14FF0010C0CFA00FCC2F810C0401CDE
:100810000828D1D31460B1F800C0BCF1FF0F34DD5B
:10082000546800202EE000F1080C4FF0010808FA8F
:100830000CF3B1F800C00CEA03069E4221D18300FC
:100840004FF00F0C0CFA03F7BC4305FA03FC4CEA1B
:10085000040491F803C0BCF1280F05D100F1080C85
:1008600008FA0CF8C2F8148091F803C0BCF1480FE4
:1008700007D100F1080C4FF0010808FA0CF8C2F893
:100880001080401C0828CED35460BDE8F081024699
:10089000002093680B400BB1012000E0002070475E
:1008A00041617047016170470AB1016100E0416137
:1008B000704700BFFEE7000010B5002402211E486B
:1008C000FFF7E5FF68B91420FFF795FE00BF02218E
:1008D0001948FFF7DCFF0028F9D01420FFF78BFE42
:1008E00001244FF400611448FFF7D1FF70B91420C0
:1008F000FFF781FE00BF4FF400610F48FFF7C7FF0D
:100900000028F8D01420FFF776FE022401210A48BF
:10091000FFF7BDFF68B91420FFF76DFE00BF01218E
:100920000548FFF7B4FF0028F9D01420FFF763FE55
:100930000324204610BD0000000C014008B5012131
:10094000082000F021FB48208DF8030040F603004A
:10095000ADF8000003208DF8020069460148FFF75A
:100960000BFF08BD000C014000BFFEE708B50121E8
:10097000042000F009FB10208DF803003020ADF8B2
:10098000000003208DF8020069460348FFF7F4FEDB
:1009900000F088FA08BD00000008014010B50446C8
:1009A000002C0BDB10210C48FFF77CFF20210A48AC
:1009B000FFF776FFA0B200F0BFFA0BE01021064867
:1009C000FFF76EFF20210448FFF76CFF614288B2F9
:1009D00000F0B2FA10BD00000008014070470000AE
:1009E00070B5002100230F22C47804B3154C24688D
:1009F00004F4E064C4F5E064210AC1F10403CA40D0
:100A0000447804FA03F184781440214309010E4C20
:100A10000678A155047804F01F050124AC40057840
:100A20006D11AD0005F1E025C5F8004109E004783D
:100A300004F01F050124AC40044D0678761145F8FA
:100A4000264070BD0CED00E000E400E080E100E035
:100A500002490143024A1160704700000000FA0594
:100A60000CED00E070B500240EE00021204600F0FF
:100A7000F0F8002504E0002000F0AFF9681CC5B2D2
:100A8000802DF8DB601CC4B2082CEEDB70BD0000CA
:100A900008B50121082000F077FA14208DF8030032
:100AA00003208DF802004FF48070ADF80000694615
:100AB0000A48FFF761FE4FF40070ADF80000694688
:100AC0000648FFF759FE012211020448FFF7ECFE29
:100AD000012251020148FFF7E7FE08BD000C01406A
:100AE00070B50546002415E08020204100EA05028B
:100AF0004FF400710E48FFF7D7FE012211020C4897
:100B0000FFF7D2FE00224FF480710948FFF7CCFEB8
:100B1000601CC4B2082CE7DB012211020448FFF775
:100B2000C3FE00224FF480710148FFF7BDFE70BD87
:100B3000000C014010B5012251020A48FFF7B4FE33
:100B4000012211020748FFF7AFFE00224FF40071A7
:100B50000448FFF7A9FE00224FF480710148FFF717
:100B6000A3FE10BD000C014010B500224FF400712F
:100B70000648FFF799FE012211020448FFF794FE90
:100B8000012251020148FFF78FFE10BD000C014009
:100B900070B5002406E0002500E06D1CB5F57A7FF5
:100BA000FBD3641CB4F57A7FF5D3FFF771FFAE2059
:100BB00000F003F9D52000F000F9802000F0FDF8E6
:100BC000A82000F0FAF83F2000F0F7F8D32000F05A
:100BD000F4F8002000F0F1F8402000F0EEF8A12039
:100BE00000F0EBF8C82000F0E8F8DA2000F0E5F8B3
:100BF000122000F0E2F8812000F0DFF8CF2000F0B2
:100C0000DCF8D92000F0D9F8F12000F0D6F8DB208C
:100C100000F0D3F8302000F0D0F8A42000F0CDF898
:100C2000A62000F0CAF88D2000F0C7F8142000F0CC
:100C3000C4F8AF2000F0C1F8FFF714FF70BD10B585
:100C40000246012000E050430B1EA1F10101FAD140
:100C500010BD70B505460C4645F0B00000F0ADF88B
:100C6000102141EA141000F0A8F804F00F0000F081
:100C7000A4F870BD2DE9F04105460E461746721ED8
:100C8000D206110E6A1E5206100EFFF7E2FF002474
:100C900009E0A7F12001134A02EB0111085D00F001
:100CA0009CF8601CC4B2082CF3DB721ED206110E35
:100CB0006A1E012303EB4202D0B2FFF7CAFF0024F1
:100CC0000BE0A7F12001074A02EB011204F1080131
:100CD000505C00F082F8601CC4B2082CF1DBBDE867
:100CE000F08100004E1900082DE9F04780460E46BD
:100CF00017461D46002415E0281B411E0A20FFF759
:100D00009EFFB7FBF0F00A21B0FBF1F201FB1200ED
:100D100000F130093019C1B24A464046FFF7AAFF38
:100D2000601CC4B2AC42E7DBBDE8F0872DE9F047B8
:100D30008146884615461E46002D06DB2B2241467D
:100D40004846FFF797FF2F4605E02D2241464846CB
:100D5000FFF790FF6F42002417E0301B411E0A206E
:100D6000FFF76DFFB7FBF0F00A21B0FBF1F201FBDA
:100D7000120000F1300A08EB0400401CC1B25246D8
:100D80004846FFF777FF601CC4B2B442E5DBBDE81C
:100D9000F0872DE9F04107460E461546002407E08E
:100DA0002A5D3019C1B23846FFF764FF601CC4B237
:100DB000285D0028F4D1BDE8F08110B50446FFF7A6
:100DC000B9FE7820FFF78CFE0020FFF789FE204651
:100DD000FFF786FEFFF7C8FE10BD10B50446FFF70B
:100DE000A9FE7820FFF77CFE4020FFF779FE204621
:100DF000FFF776FEFFF7B8FE10BD000000B589B022
:100E00000121084600F0B0F80121042000F0BCF8F0
:100E100018208DF823000220ADF8200003208DF863
:100E2000220008A91A48FFF7A7FC4FF0804000F005
:100E300091F90020ADF81A00ADF8160044F61F60D5
:100E4000ADF818004720ADF8140000208DF81C0004
:100E500005A94FF0804000F02FFA01A800F01EFA1B
:100E60006020ADF804000020ADF80C000120ADF8C2
:100E700006000020ADF80A0001A94FF0804000F004
:100E8000BBF90121880700F059F909B000BD000045
:100E90000008014010B5044621464FF0804000F0A4
:100EA00009FA10BD00B589B00121042000F05CF8FA
:100EB0000121082000F068F818208DF82300402058
:100EC000ADF8200003208DF8220008A91848FFF78C
:100ED00053FC184800F03EF90020ADF81A00ADF8B8
:100EE00016006320ADF818002320ADF81400002090
:100EF0008DF81C0005A90F4800F0DEF901A800F0EC
:100F0000CDF96020ADF804000020ADF80C00012000
:100F1000ADF806000020ADF80A0001A9054800F070
:100F20001FF90121034800F009F909B000BD0000D4
:100F3000000C01400008004010B50446214602485C
:100F400000F0B6F910BD0000000800407047000036
:100F500001460020034A506820F440400843506096
:100F6000704700000010024029B1064AD2690243CE
:100F7000044BDA6104E0034AD2698243014BDA612F
:100F8000704700000010024029B1064A92690243EE
:100F9000044B9A6104E0034A92698243014B9A61CF
:100FA0007047000000100240704710B5FFF726FFA1
:100FB00010BD00002DE9F04104460A49204600F02A
:100FC000A3FA8046084900F081FB0746074900F074
:100FD00039FA064600F05AFB85B22846FFF75AFF59
:100FE000BDE8F081000034430000FA440000FA43F9
:100FF00010B500F001F810BD0CB500200190009074
:101000003348006840F480303149086000BF304800
:10101000006800F4003000900198401C0190009896
:1010200018B90198B0F5A06FF1D12948006800F413
:10103000003010B10120009001E0002000900098E5
:10104000012843D12348006840F01000214908607E
:101050000846006820F0030008600846006840F079
:10106000020008601A48406819494860084640680C
:1010700048600846406840F4806048600846406820
:1010800020F47C1048600846406840F4E81048604E
:101090000846006840F08070086000BF0C48006897
:1010A00000F000700028F9D00948406820F00300E3
:1010B000074948600846406840F00200486000BFA9
:1010C0000348406800F00C000828F9D10CBD00006E
:1010D00000100240002002407047000010B5134885
:1010E000006840F001001149086008464068104956
:1010F00008400E494860084600680E4908400B4900
:1011000008600846006820F48020086008464068AF
:1011100020F4FE0048604FF41F008860FFF768FF6E
:101120004FF000600449086010BD0000001002404C
:101130000000FFF8FFFFF6FE08ED00E021B1028895
:1011400042F00102028004E002884FF6FE731A406A
:101150000280704701894FF6F87211400181704793
:1011600070B5002400220023058C4FF6FE76354032
:101170000584028C8388048B4FF68F752C40B51E36
:101180002C400D882C43751E2A400D892A434D881A
:101190002A43144DA8420BD0134DA84208D0134D3A
:1011A000A84205D0124DA84202D0124DA84213D138
:1011B0004FF6F7752A404D892A434FF6FB752A40B2
:1011C0008D882A434FF6FF652B404FF6FF552B4085
:1011D0008D892B43CD892B4383800483CD888586DD
:1011E000028470BD002C01400034014000400140E9
:1011F000004401400048014070B500240022002353
:10120000058C4FF6EF7635400584028C8388048B7D
:1012100048F6FF752C404FF6FF452C400D884FF6E1
:10122000FF7606EA05252C434FF6DF752A400D8927
:1012300006EA05152A434D8806EA05152A43154D89
:10124000A84202D0144DA8421DD14FF67F752A4006
:101250004D894FF6FF7606EA05152A434FF6BF750E
:101260002A408D8806EA05152A434FF6FF352B40A4
:101270004FF2FF752B408D8906EA85052B43CD89FA
:1012800006EA85052B4383800483CD880587028485
:1012900070BD0000002C014000340140002101809D
:1012A00041808180C180018141818181C1817047FC
:1012B0008186704701877047002202881D4B984243
:1012C0000ED01D4B98420BD0B0F1804F08D01B4B75
:1012D000984205D01A4B984202D01A4B984204D13A
:1012E0004FF68F731A404B881A43174B984207D01A
:1012F000164B984204D04FF6FF431A40CB881A434E
:1013000002808B8883850B8803850A4B98420BD01B
:10131000094B984208D00E4B984205D00D4B98428D
:1013200002D00D4B984201D10B7A038601238382B0
:1013300070470000002C01400034014000040040D0
:1013400000080040000C0040001000400014004065
:1013500000400140004401400048014000BFFEE75A
:10136000FFF70AF9FFF714FCFFF7E8FAFFF77EF83A
:10137000FFF71BFEFFF7FAFA28A201210846FFF744
:1013800008FD28A201210220FFF703FD27A2012169
:101390000320FFF7FEFC3FE0FFF760F825490880D7
:1013A000FFF78AFA2449087008460078012802D11C
:1013B0000F202249087020480078022802D1F1202D
:1013C0001E4908701C480078032802D100201B49E0
:1013D00008701A4890F90000FFF7E0FA6420FFF760
:1013E0000AF91748FFF7E6FD0323144890F9002097
:1013F00007210120FFF79AFCFFF7B8F80446052300
:10140000224607210220FFF76FFC042309480288C7
:1014100005210320FFF768FCBEE7000053706565F7
:10142000643A0000436F756E743A00004144303AEC
:101430000000000004000020020000200300002043
:101440000000B44290EA010F48BF81F0004100F172
:101450001082421A3CBF801A89184FEAD0524FF0CE
:101460007F4C1CEA410FA2EBD15318BF9CEA026FDC
:1014700000F03B804FF0004C4CEA00204CEA012188
:1014800021FA03FC10EB0C0C1ED202F1FF325FEAD2
:101490001C2040EBC25038BF70471CF07F0F4FEA52
:1014A000400C18BFBCF17F4F38BF7047C3F1200319
:1014B000994008BF20F00100BCF17F4F38BF704752
:1014C000A0F1C04000F0C9B94FEA3C00000A40EB6F
:1014D000C25028BF1CF0FF0F4FEA400CE6D018BFE7
:1014E000BCF17F4F38BF7047EAE79CEA026F05D036
:1014F00010EA5C0F08BF00F00040704710B500F024
:1015000066F900BF64FBBE3E4FF47F0C1CEAD012AC
:101510001EBF1CEAD11392EA0C0F93EA0C0F00F0E5
:10152000858090EA010F48BF42F4807240F4000CBD
:1015300041F400002CF07F4120F07F4000B5814253
:10154000A2EB03020FF2081CACEB504EC0F10000FE
:101550009EF800E04FEA4E0E00FB0EFC38BF49003B
:101560004FEA2C1C02F5FA020CFB0EF34FEACE1EDA
:101570004FEA112C4FEAC1210EEB635E42EB22428F
:101580000EFB0CFC4FEA1C5300FB03114FEA112C1D
:101590004FEA01310EFB0CFC4FEADC4C00FB0C1156
:1015A000C14228BF09184CEB03335DF804EB10EB84
:1015B000410143EBC250B2F57C0F38BF704729D5CB
:1015C00012F0F00F1CBF00F1C04000F00040704767
:1015D000008182838485868788898B8C8D8E8F910C
:1015E0009293959697999A9C9D9FA0A2A3A5A7A830
:1015F000AAACAEB0B2B3B5B7B9BCBEC0C2C5C7C95C
:10160000CCCED1D4D7D9DCDFE2E6E9ECF0F3F7FABF
:10161000FE0000004FEA400C0CF1807CBCF17E4FD4
:1016200028BF7047B0F1C04000F017B990EA010F31
:101630000CEAD11348BF42F48072624538BF63455B
:1016400007D213F47F0F16D080EA010000F00040AB
:10165000704710B500F0BBF8097EFC3E00F005B8FD
:1016600080EA010000F00040704780EA010000F0CD
:10167000004000F0F2B812F47F0F04BF0248704738
:1016800080EA010000F0E9B80000C07FC10DD1F18F
:101690009E0206DB4FEA002343F0004323FA02F0E8
:1016A0007047004207D54FEA4001B1F1FE4F02D228
:1016B0004FF00000704710B500F089F8499224807F
:1016C000002070476FEA2000704700004FF47F0C45
:1016D0001CEAD0121EBF1CEAD11392EA0C0F93EA47
:1016E0000C0F00F0478090EA010F48BF42F480726F
:1016F0004FF0004C4CEA00204CEA012102EB0302BF
:10170000A0FB0113A2F50002002918BF43F001035A
:101710005B0028BF4FEA330342EB22425FEA132CFF
:101720004CEBC2502EBFBCEB436FB2F57C0F704741
:101730004FEA036CBCF1004F08BF20F00100B2F586
:101740007C0F38BF70470BD582F0FF0212F5803F47
:10175000C8BF704700F1C040D8BF00F000407047DC
:1017600000F5000C5FEA4C0C48BF7047B0F1C04078
:1017700000F073B890EA010F0CEAD11348BF42F4AD
:101780008072624538BF634504D280EA010000F0F0
:101790000040704710B500F01AF800BF8900013E04
:1017A00000F007B800F009B85FEA410C5FEA1C6C72
:1017B00008D080EA010000F050B85FEA400C5FEA10
:1017C0001C6CF6D14FF00040A0F5800070470EF180
:1017D000020E2EF0030E5EF8044B244204D44FEAAE
:1017E0004102B2F17F4F11D84FEA4003B3F17F4F6E
:1017F0000CD80ED14FEAD07CB2F17F4F0CEB4C0CE1
:101800000CF1020C08BF4CEBD17C04E04FF0080C4B
:1018100001E04FEAD17C0CEB4C0324FA03F404F012
:101820000704B4F1040C06D20EEB840CBDE81040A2
:101830004CF0010C6047DFE80CF0070802024FF0A3
:101840000040A0F5800010BD0846420018BFD2F14C
:10185000807288BF00F0004010BDFF2141EAD050E7
:10186000C005704790EA010F48BF81F000413FF585
:10187000F0AD421A04D882F00042A0EB02001144FD
:101880004FEAD0524FF07F4C1CEA410FA2EBD153EC
:1018900018BF9CEA026F4AD04FF0004C4CEA00207F
:1018A0004CEA012121FA03FCB0EB0C0C0FD412F02E
:1018B000FE0F36D05FEA4C001DD5001240EBC2503F
:1018C00038BF70471CF03F0F18BF70470BE0A2F104
:1018D00001025FEA1C2040EBC25038BF70471CF089
:1018E0007F0F18BF7047C3F12003994014BF401EFB
:1018F00020F00100704780084FEA122308BF7047AC
:10190000B0FA80FCA2EB0C02CCF1280C60FA0CF0CF
:1019100093EA122F04BF00EBC25070474FEAC37026
:101920007047130A5FEADC1008BF7047F6E79CEACD
:10193000026F04D010EA5C0F08BF0020704710B59A
:10194000FFF745FF40DFF63E81F0004070470000A2
:101950000000000000000000000000000000000087
:1019600000F800000000000000333000000000100C
:101970000C06100C0600000000000000000040C033
:101980007840C0784000043F04043F040400007025
:1019900088FC08300000001820FF211E0000F0081D
:1019A000F000E018000000211C031E211E0000F0C2
:1019B0000888700000001E2123241927211010160A
:1019C0000E00000000000000000000000000000009
:1019D00000E0180402000000000718204000000288
:1019E0000418E000000000402018070000004040FC
:1019F00080F0804040000202010F0102020000005E
:101A000000F0000000000101011F010101000000C1
:101A100000000000000080B0700000000000000026
:101A200000000000000000010101010101010000AF
:101A30000000000000000030300000000000000046
:101A4000000080601804006018060100000000E03B
:101A500010080810E000000F102020100F000010E8
:101A600010F8000000000020203F2020000000703F
:101A70000808088870000030282422213000003037
:101A80000888884830000018202020110E0000002F
:101A9000C02010F8000000070424243F240000F8B0
:101AA0000888880808000019212020110E0000E095
:101AB000108888180000000F112020110E00003837
:101AC0000808C83808000000003F0000000000704F
:101AD000880808887000001C222121221C0000E0D8
:101AE00010080810E0000000312222110F00000051
:101AF00000C0C00000000000003030000000000006
:101B00000080000000000000806000000000000075
:101B1000804020100800000102040810200040400E
:101B20004040404040000404040404040400000851
:101B30001020408000000020100804020100007006
:101B400048080808F0000000003036010000C030EE
:101B5000C828E810E0000718272423140B00000011
:101B6000C038E0000000203C23020227382008F89B
:101B7000888888700000203F202020110E00C0308F
:101B8000080808083800071820202010080008F866
:101B900008080810E000203F202020100F0008F85F
:101BA0008888E8081000203F20202320180008F82B
:101BB0008888E8081000203F200003000000C030A3
:101BC00008080838000007182020221E020008F824
:101BD00008000008F808203F210101213F200008EB
:101BE00008F8080800000020203F20200000000026
:101BF0000808F8080800C08080807F00000008F80E
:101C000088C028180800203F20012638200008F846
:101C1000080000000000203F20202020300008F8AD
:101C2000F800F8F80800203F003F003F200008F8C7
:101C300030C00008F808203F200007183F00E010DF
:101C400008080810E0000F10202020100F0008F8EE
:101C500008080808F000203F210101010000E01001
:101C600008080810E0000F18242438504F0008F826
:101C7000888888887000203F2000030C3020007086
:101C80008808080838000038202121221C00180884
:101C900008F8080818000000203F2000000008F89D
:101CA00008000008F808001F202020201F000878E6
:101CB000880000C83808000007380E010000F80846
:101CC00000F80008F800033C0700073C0300081870
:101CD00068808068180820302C03032C30200838D6
:101CE000C800C83808000000203F2000000010088D
:101CF0000808C838080020382621202018000000D5
:101D000000FE020202000000007F40404000000C84
:101D100030C000000000000000010638C0000002D2
:101D20000202FE000000004040407F000000000072
:101D30000402020204000000000000000000000095
:101D40000000000000008080808080808080000291
:101D5000020400000000000000000000000000007D
:101D60008080808000000019242222223F2008F871
:101D7000008080000000003F112020110E000000B4
:101D8000008080800000000E112020201100000043
:101D900000808088F800000E112020103F200000F5
:101DA000808080800000001F2222222213000080F9
:101DB00080F0888888180020203F20200000000044
:101DC000808080808000006B94949493600008F879
:101DD000008080800000203F210000203F20008004
:101DE0009898000000000020203F20200000000004
:101DF00000809898000000C08080807F000008F874
:101E0000000080808000203F24022D302000000848
:101E100008F8000000000020203F20200000808003
:101E2000808080808000203F20003F20003F808015
:101E3000008080800000203F210000203F20000023
:101E4000808080800000001F202020201F008080D4
:101E500000808000000080FFA12020110E00000003
:101E6000008080808000000E112020A0FF808080F4
:101E700080008080800020203F21200001000000A1
:101E80008080808080000033242424241900008076
:101E900080E0808000000000001F20200000808083
:101EA000000000808000001F202020103F20808044
:101EB00080000080808000010E30080601008080D4
:101EC0000080008080800F300C030C300F000080F9
:101ED0008000808080000020312E0E312000808024
:101EE00080000080808080818E7018060100008054
:101EF0008080808080000021302C22213000000072
:101F00000000807C020200000000003F4040000012
:101F10000000FF00000000000000FF0000000002C1
:101F2000027C800000000040403F000000000006EE
:101F30000101020204040000000000000000000093
:101F4000601F0008000000200800000028010008B1
:101F5000681F000808000020600600004401000817
:081F6000000000000000000079
:04000005080000ED02
:00000001FF
